:10175C00463A00533A0025352E3266002D00200003
:10176C002533640050002020202020202020202021
:10177C00202000202020202020002564200041254E
:10178C004275200050303730303A20202000503144
:10179C003030303A2020200050323031313A202085
:1017AC00200072323032343A202020007232303233
:1017BC00353A2020200050202020202020202000FE
:1019B7000F22020E010000000000000000000000DE
:1019C70000023F03E8013D00013100014800013EEC
:0519D70000023B0000CE
:1019DD00E4FDFCC3ED9FEC9E5015E4FBFA0BBB0040
:0F19ED00010AEB64504A70F50DBD00010C80E457
:0119FC0022C8
:10191800EF30E004D2848002C284EF30E104D28543
:101928008002C285EF30E204D2868002C286EF30A0
:08193800E303D28722C28722DB
:071A1D007E001219DD7F03BA
:101A2400C282121918D2837F057E001219DDC28387
:011A3400228F
:0A1A5100E4FF121A247F01021A2498
:04181C008F648D65E3
:10182000E564B4010EE5652480F97804A2E713D8D5
:10183000FB8011E564B4021DE56524C0F97804A2BB
:10184000E713D8FBF566E9540FF567AF66121A2463
:05185000AF67121A242D
:011855002270
:10185600E4FF1219187FAA121A1D7F32121A1D7F71
:101866006E121A1D7F02121A247F02121A247F0892
:10187600121A24E4FF121A247F0C121A24E4FF120F
:071886001A247F06021A2458
:0218EF00AE0742
:1018F100EE540FFDEE54F0FFD2827804A2E713D824
:10190100FBFF121918D2830000C283AF0512191808
:06191100D2830000C28336
:0119170022AD
:06188D007B007A007934B3
:061893008B648A65896682
:10189900E4F567F568AB64AA65A96685688285671A
:1018A90083120CE1FF600D1218EF0568E56870E519
:0418B900056780E15E
:0118BD002208
:051A5B00EFFEEDFF228B
:061940008B608A618962E0
:10194600E4F563FFFEAB60AA61A9628F828E831203
:101956000CE162630FBF00010EEF640F4E70E6AF3D
:01196600631D
:01196700225D
:061968008B598A5A895BCD
:10196E00E4F55CFFFEAB59AA5AA95B8F828E8312F7
:10197E000CE1625C0FBF00010EEF640F4E70E6AF1C
:01198E005CFC
:01198F002235
:0F1A3500758921758DEF7598D0758780D28E22B7
:0D1A4400EFA2D0929BF5993099FDC2992236
:0618BE008B5D8A5E895F6C
:1018C400E4FDFCAB5DAA5EA95F8D828C83120CE102
:1018D400FF121A440DBD00010CED640F4C70E4AB13
:0B18E4005DAA5EA95F121940021A44C1
:0300230002156162
:10156100C0E0C083C082C0D075D000C000C001C03F
:1015710002C003C005C006C007308D030216242037
:101581009803021624E599859946C298A29A30D00B
:1015910001B35003021624E53D7015E5466402606F
:1015A10003021624AF3D053D74492FF8A64680730A
:1015B100AF3D053D74492FF8A646E53DC394104063
:1015C100627B007A0079491219687448253DF8E672
:1015D1006F702E7446253DF8E6FF7447253DF8E609
:1015E100FD121A5B8E418F42E53E70157442253D16
:1015F100F8E6FF7443253DF8E6FD121A5B8E3B8F3A
:101601003CD3E5429410E54194274010D20974205F
:101611009542F542744E9541F5418002C209753DEE
:1016210000D28DD007D006D005D003D002D001D092
:0A16310000D0D0D082D083D0E03288
:03000B000214726A
:10147200C0E0C083C082C0D075D000C000C001C02F
:1014820002C003C004C005C006C007D2B2758CE812
:10149200758A1FD28C308DFD209005752D05800E2A
:1014A200209105752D06800620A108752D04752E44
:1014B2007E801120A005752D04800620A206752DC0
:1014C2000D752E7FE531701B20B60974642540F539
:1014D20040E4800B20B70C749C2540F54074FF3526
:1014E2003FF53FE53FFF8F2FE540F530E548602FA0
:1014F200E53EB4011720B31485442585452685476A
:1015020027E53BFF8F2BE53CF52C8022E53E700F53
:10151200854425854526854727F52BF52C800F75B3
:101522002C00752B00752700752600752500854354
:10153200247B007A0079221218BEC2B2758C007523
:101542008A00D28CC28DD007D006D005D004D00339
:0F155200D002D001D000D0D0D082D083D0E032F0
:10125E00754301121A35121856758CE8758A1FD20D
:10126E00AFD2ACD2A9D28CC2B2121A517D087F0174
:10127E0012181C7BFF7A17795C121893E4FD7F011C
:10128E0012181C7BFF7A17795F1218931217CC7500
:10129E0067FF756817756962AC41AD42E41208A527
:1012AE00E4FBFA79C878421208038F6D8E6C8D6B51
:1012BE008C6A7B007A007934120E4B7D0A7F0130E6
:1012CE00090B12181C7BFF7A177968800912181CFB
:1012DE007BFF7A17796A1218937D0B7F0112181C07
:1012EE0012188D7567FF75681775696CAE3FAF4044
:1012FE007C007D64120D208E6A8F6B7B007A0079E4
:10130E0034120E4B7D027F0112181C12188D20B55F
:10131E002FE4FD7F0212181C0531E5311470087B95
:10132E00FF7A177970800FE4F53BF53CF548F531FF
:10133E007BFF7A1779721218937F0A7E001219FDBD
:10134E00E531700302129A6401702AFD7F021218B1
:10135E001C20A40F0548E4F53E12163B7F0D7E00BF
:10136E001219FD20B40F1548E4F53E12163B7F0D01
:10137E007E001219FDE548700302129A20A309059A
:10138E003E7F0A7E001219FDE53ED394014003E430
:10139E00F53EE53E70107D067F0212181C7BFF7A2B
:1013AE0017797F121893E53E6401600302129A20AA
:1013BE00B60A053CE53C700F053B800B20B70FE5E8
:1013CE003C153C7002153B7F057E001219FDE54869
:1013DE00B4011020B305754422800375441275457F
:1013EE00BC8013E548B4021620B305754423800370
:1013FE007544137545E8753200753306801CE54853
:10140E00B4031720B3057544208003754410754549
:10141E000B75478075320075331FD3E53C9533E568
:10142E00326480F8E53B6480984005E4F53BF53C7A
:10143E00C3E53B64809480500685323B85333C7D0A
:10144E00067F0212181C7567FF7568177569868509
:10145E003B6A853C6B7B007A007934120E4B121876
:04146E008D02129A3F
:1019FD00E4FDFCC3ED9FEC9E5015E4FBFA0BBB0020
:0F1A0D00010ABA02F8BB9BF50DBD00010C80E485
:011A1C0022A7
:1017CC0020A6040543800520A70915437F087E0049
:1017DC001219FDD3E5436480949F4003E4F543C3A1
:1017EC00E54364809480500375431F7567FF7568EB
:1017FC001775698A85436A7B007A007934120E4B1F
:10180C007D0D7F0212181C7B007A0079340218932C
:10163B00E54824FE601E14602C14603A14604824A4
:10164B000470557544127545BCE4F5477BFF7A175A
:10165B00799080557544137545E8E4F5477BFF7A1F
:10166B0017799A804475441075450B7547807BFF3D
:10167B007A1779A480337544107545187547807BAC
:10168B00FF7A1779AE80227544107545197547801E
:10169B007BFF7A1779B88011E4F544F545F547F5EA
:1016AB003BF53C7BFF7A1779C2121893D3E548645C
:1016BB008094854003E4F548C3E5486480948050EA
:0516CB00037548062232
:1008000002091DEC5D046005E85904700302091338
:100810001208DE580460F6EC4860F2EC7004FDFE4D
:10082000FF22C860DB2481C85009C39860025006CB
:1008300002091A9850CAF582E9294B4A7005AB8221
:1008400002090975F0007C1A7880C3EF9BEE9AEDDF
:1008500099400DC3EF9BFFEE9AFEED99FDE842F043
:10086000DC23ACF0D0E0FFD0E0FED0E0FDAB822096
:10087000E7101BEB60BAEC2CFCEF33FFEE33FEED20
:1008800033FD0208F5E803F830E705C0F075F00025
:10089000EF2FFFEE33FEED33FD40B830E7C280AA04
:1008A00075F020800E75F010800575F0087D007ED3
:1008B000007F003392D530D503120D56EC33401033
:1008C000EF33FFEE33FEED33FDEC33FCD5F0ED22DC
:0E08D000E5F0247EA2D513CC92E7CDCEFF2218
:100DEF00E57B2467F8E6057B227864300702786795
:100DFF00E475F001120D64020CC82000EB7F2ED2B7
:100E0F00008018EF540F2490D43440D4FF30040BDB
:100E1F00EF24BFB41A0050032461FFE57C60021574
:100E2F007C057FE57F7002057E30070D7864E475E1
:100E3F00F001120D64EF020D0E0219907403D20728
:100E4F008003E4C207F57B8B648A658966E4F57CD1
:100E5F00F57EF57FE57C60077F20120E2A80F57501
:100E6F007DFFC201C200C202C203C205C206C20890
:100E7F00120DF8FF700D3007057F00120E3BAF7F8C
:100E8F00AE7E22B4255FC2D5C204120DF8FF24D066
:100E9F00B40A00501A75F00A787C30D50508B6FFF1
:100EAF000106C6A426F620D5047002D20380D924E9
:100EBF00CFB41A00EF5004C2E5D204021128D201B8
:100ECF0080C6D20080C0D20280BCD2D580BAD205F3
:100EDF0080B47F20120E2A2002077401B57C0040D7
:100EEF00F1120DEFFF120E2A020E63D208D2068006
:100EFF0095120DEFFB120DEFFA120DEFF94A4B7031
:100F0F0006791F7A127BFF20022EE57C602A7E0075
:100F1F008E82758300120CE160060EEE657D70F017
:100F2F00C2D5EBC0E0EAC0E0E9C0E0EE121188D014
:100F3F00E0F9D0E0FAD0E0FB120CC8FF60AAEBC0DA
:100F4F00E0EAC0E0E9C0E0120E2AD0E02401F9D0B7
:100F5F00E03400FAD0E0FBE57D0460DCD57DD9807C
:100F6F0087D20280A212116B60F7E57D7001041227
:100F7F000928A97D600DE57D600914F57D12121217
:100F8F00EF60F3EA30E702F404C3995077EAF425EF
:100F9F007D0430E701E404F57D800D12116B60C113
:100FAF00EA057D257D120928EA787AF630E701E413
:100FBF00257D04D57D0420050114121188E4C0E0BD
:100FCF00121212787AE6601320E70714F6120E1247
:100FDF00802204F6D0E014C0E07F00120E12E57DEF
:100FEF006007120E09157D800B300503120E09D014
:100FFF00E0020E63D0E00480C512116B60A0E57DA6
:10100F0004120928787AEAF6E57D200502600104CA
:05101F002404121188F9
:1010240074FF04C0E0121212120E12E57D200502B4
:101034006003120E09D0E0B57DE87F45120E1C78DE
:101044007AE67F2B30E7047F2DF404C0E0120E2AE9
:10105400D0E075F00A84C0F0120E13D0E0120E1323
:10106400020E63791080027908C206C2088008D291
:10107400D5790A8004790AC2D5E57D047002F57D2C
:10108400E4FAFDFEFF120DEFFC7B08200113120DA4
:10109400EFFD7B1030000A120DEFFE120DEFFF7B07
:1010A40020EC3382D592D55013C3E43000069FFF61
:1010B400E49EFEE42001039DFDE49CFCE4CBF8C225
:1010C40001EC700CCFCECDCCE824F8F870F3801787
:1010D400C3EF33FFEE33FEED33FDEC33FCEB33FBB8
:1010E400994002FB0FD8E9EB300105F8D0E0C44881
:1010F400B201C0E00AEC4D4E4F78207B0070C2EA8A
:10110400B57D0040BCC0E012118AD0F0D0E02001CF
:1011140004C4C0E0C4B201C0F0120E13D0F0D5F084
:10112400EB020E63120D740F00531067580ED14C6E
:101134000ECD42106B4F1073441073490EE64310EA
:1011440079550FAA461008450F7447123F500ED523
:101154002D0ED92E0EFC2B0EDD230EFA2012282A7A
:101164000E954800000EF4E57DB4FF03757D06126C
:101174000DEFFC120DEFFD120DEFFE120DEFFF78D7
:1011840073020957790AA2D5200314300509B9104E
:10119400020404B9080104A2D52006025001042067
:1011A40002689202B57C005034C0E07F20300319FD
:1011B4007F30A20272067205500F1211E1C202C200
:1011C40006C205C2087F30800F300503E9C0E01273
:1011D4000E2A300503D0E0F9D0E0B57CCC300517F9
:1011E4007F30B9100C120E2A7F583004077F7880A4
:1011F40003B90803120E2A3002057F2D020E2A7F3E
:10120400202008F87F2B2006F322920280CF7F0053
:10121400B4070050052473F8E6FF22286E756C6C41
:101224002900D201120DEF3001F8C201787C30D5CB
:101234000108F6020E952D50434958120DEF240370
:10124400B405004001E490123A93120E1B743A1252
:0A1254000E1BD203757C0402106724
:1008DE00E9D2E7C933E833F892D5EDD2E7CD33EC60
:0708EE0033FC5002B2D522D9
:1008F500EC30E7100FBF000C0EBE00080DBD000464
:100905000BEB6014A2D5EB13FCED92E7FD2274FF0F
:10091500FCFDFEFF22E480F8A2D574FF13FC7D8068
:03092500E480EF7C
:10092800F920E72824F950037907E4F42402FB1896
:10093800DBFDE624FB5014E9600DE4F618E604F646
:0F094800B40A08E4F6D9F57401F60A22C2D522E2
:10095700ED33EC3392D5FA602AB4FF33EDC2E77B6F
:10096700FF60067A09797CE4227A09798520D50423
:100977007A097980224E614E002B494E46002D4957
:100987004E4600E47A08F608DAFC7B00740722E892
:10099700C0E0ECC0E0EDC0E0EEC0E0EFC0E0EA751B
:1009A700F010A4CAABF075F04DA42BFBE435F0FCB6
:1009B700EA2410FAEB34C5FBEC34D9FCEDC2E7FFAF
:1009C70075F056A4F42411C5F0F434C58FF0A42AA9
:1009D700E5F03BE43CF620E714120C88D0E0FFD0AA
:1009E700E0FED0E0FDD0E0FC1208038014F404120E
:1009F7000C88D0E0FFD0E0FED0E0FDD0E0FC120B89
:100A070052D0E0F8E6FAEDD2E7CD33EC332482FB9F
:100A1700E4C3CF33CFCE33CECD33CD33DBF37B0738
:100A270075F00A846004F6081B0AE5F0F6088FF0F3
:100A3700740AA4FFACF08EF0740AA42CFEACF0503C
:100A4700010C8DF0740AA42CFDE435F0F608DBDE0A
:030A5700740722FF
:100A5A00020913E86480F8E933E83360110460F0AE
:100A6A00ED33EC337009E8FCE9FDEAFEEBFF220402
:100A7A0060DED3EB9FEA9EE99DE8C2E78CF0C2F7FD
:100A8A0095F0400CE8CCF8E9CDF9EACEFAEBCFFBC9
:100A9A001208DE85D0F05804700320D5B3E804703C
:100AAA00075002B2D502091D92D5EC0460F7E4CCD6
:100ABA00C0E0C398F8603B94186008400DD0E0FB92
:100ACA000208F5E4FBFAC9FC8028E830E406E4C928
:100ADA00FBE4CAFCE830E305E4C9CACBFCE85407E6
:100AEA006010F8C3E913F9EA13FAEB13FBEC13FCF1
:100AFA00D8F130F52FC3E49CFCEF9BFFEE9AFEED94
:100B0A0099FDD0E0FBEF4E4D4C701222DB03020937
:100B1A001AEC2CFCEF33FFEE33FEED33FDED30E73C
:100B2A00EB0208F5EF2BFFEE3AFEED39FDD0E0FBC4
:100B3A0050130BBB000302091DED13FDEE13FEEF6C
:080B4A0013FFEC13FC0208F597
:100B5200EC4D6011E8497017ED33EC3304600DE49D
:100B6200FCFFFEFD22E933E8330470F80209131298
:100B720008DE58046009E4CC24815006285009029A
:100B8200091D28400302091AC0E0EB4A7044B980EB
:100B920006D0E0FB020909EF4E701CBD8008EBFF96
:100BA200EAFEE9FD80EBE98DF0A4FEE5F0020C3BE4
:100BB200E9CDF9EAFEEBFFEF89F0A4FCE5F0CE897E
:100BC200F0A42EFFE435F0CD89F0A42DFEE435F03B
:100BD2008067EF4E7005BD80D780C3EF8BF0A4AC69
:100BE200F0EE8BF0A42CFCE435F0F8EF8AF0A42CA4
:100BF200E5F038FCE433CB8DF0A42CFCE5F03BF8B7
:100C0200EE8AF0A42CFCE5F038F8E433CF89F0A4A6
:100C12002CFCE5F038CF3400CE89F0A42FFFE5F0AC
:100C22003EFEE433C98DF0A42EFEE5F039CD8AF004
:100C3200A42FFFE5F03EFEE43DFD33D0E0FB50077C
:100C42000BBB000F02091DEC2CFCEF33FFEE33FE51
:060C5200ED33FD0208F580
:100C58003F8000004120000042C80000447A0000A4
:100C6800461C400047C35000497424004B18968026
:100C78004CBEBC205A0E1BCA6753C21C749DC5AE1D
:100C8800FB60065407601C2323120CB6EB54386033
:100C980009120CA2120CB1120B52ECF8EDF9EEFA93
:100CA800EFCB22EB120CB180F1543803241C900CCA
:100CB80058FE93FC0EEE93FD0EEE930ECE93FF229C
:030000000216D015
:0C16D000787FE4F6D8FD75817F021717C3
:100CC800BB010689828A83E0225002E722BBFE022A
:090CD800E32289828A83E493225D
:100CE100BB010CE58229F582E5833AF583E02250C8
:100CF10006E92582F8E622BBFE06E92582F8E22212
:0D0D0100E58229F582E5833AF583E493222B
:100D0E00BB010689828A83F0225002F722BBFE01C4
:020D1E00F322BE
:100D2000C2D5EC30E709B2D5E4C39DFDE49CFCEEEE
:100D300030E715B2D5E4C39FFFE49EFE120D9AC3BF
:100D4000E49DFDE49CFC8003120D9A30D507C3E4BA
:060D50009FFFE49EFE225D
:0E0D5600C3E49FFFE49EFEE49DFDE49CFC22AE
:100D6400FAE6FB0808E6F925F0F618E6CA3AF62290
:100D7400D083D082F8E4937012740193700DA3A30E
:100D840093F8740193F5828883E473740293686022
:060D9400EFA3A3A380DF22
:10199000EFB40A07740D12199B740A309811A899B4
:1019A000B8130CC2983098FDA899C298B811F630B7
:0719B00099FDC299F599228F
:1016DC0002125EE493A3F8E493A34003F68001F2B4
:1016EC0008DFF48029E493A3F85407240CC8C3330F
:1016FC00C4540F4420C8834004F456800146F6DFDE
:10170C00E4800B01020408102040809019B7E47E9D
:10171C00019360BCA3FF543F30E509541FFEE493D2
:10172C00A360010ECF54C025E060A840B8E493A399
:10173C00FAE493A3F8E493A3C8C582C8CAC583CAC4
:10174C00F0A3C8C582C8CAC583CADFE9DEE780BE7C
:0119DC00000A
:100D9A00BC000BBE0029EF8DF084FFADF022E4CC3D
:100DAA00F875F008EF2FFFEE33FEEC33FCEE9DEC06
:100DBA00984005FCEE9DFE0FD5F0E9E4CEFD22ED4C
:100DCA00F8F5F0EE8420D21CFEADF075F008EF2F96
:100DDA00FFED33FD4007985006D5F0F222C398FD87
:050DEA000FD5F0EA2224
:00000001FF
